:10000000E0EF01F00000000000EF00F00000000051
:0A0010000000000000000000F3D71C
:10001C000F0E0C6E470E0D6E0D2EFED70C2EFCD750
:06002C00000000001200BC
:0A003200210E0D6E0D2EFED71200F8
:06003C00000000001200AC
:1000420064BE02D0819A01D0818A64BC02D08198B8
:1000520001D0818864BA02D0819601D0818664B8C9
:1000620002D0819401D081845BB002D0818001D022
:1000720081908182E2DF819264B602D0819A01D0BE
:10008200818A64B402D0819801D0818864B202D09E
:10009200819601D0818664B002D0819401D081849E
:1000A2005BB002D0818001D081908182C6DF8192D3
:0C00B2005BA002D0B2DF01D0BBDF120067
:1000BE000134083609360450085E0550D8A0053CB8
:1000CE00095E003601360F0E0C6E01340836093605
:1000DE00045000A006D0085E0550D8A0053C095E6D
:1000EE0005D008260550D8B0053C09260036013645
:1000FE000C2EEBD700B006D0045008260550D8B011
:08010E00053C09260000120067
:0C0116005B9063C064F092DF5B8012001D
:1001220093929390939493969398939A81928190B9
:10013200819A81988196819470DF6FDF6EDF81866C
:10014200818481827ADF819268DF818276DF819287
:1001520064DF818272DF819260DF819481826DDF50
:1001620081925BDF818269DF81928196818A8182BD
:1001720064DF819252DF819A818481825EDF819283
:10018200819481825ADF819248DF818256DF819297
:100192008184818252DF819240DF819481824DDFAE
:1001A2008192818A818881868184818246DF8192DF
:0601B20034DF5B80120047
:1001B8000900F5CFE6FF0006FBE10106F9E11200B0
:1001C8000FD0800E5E6E19D0C00E5E6E16D0940EE3
:1001D8005E6E13D0D40E5E6E10D0800E5E6E0DD0A3
:1001E8005E50010AEEE05E50020AEEE05E50030A3D
:1001F800EEE05E50040AEEE0F0D75F04006E5E5059
:10020800002600C05EF000C064F017DF5B90626AF1
:1002180062506024E96E000E6120EA6EEE520BE037
:1002280062506024E96E000E6120EA6EEECF63F042
:0A0238006EDF622AEDD75B80120032
:100242000450000A08E10550000A05E1FF0E006EA5
:100252007F0E016E57D00D6A096A086A01500010BC
:10026200D8B4000C015005180A6E0ABE0D1E0B6AA6
:1002720005AE05D0041E051E042AD8B4052A01AE17
:1002820005D0001E011E002AD8B4012A0150051013
:100292000A6E0ABE10D012DF0BB020D00DAE000CD9
:1002A200001E011E002AD8B4012A081E091E082AAF
:1002B200D8B4092A000C05AE0DD001BE07D00150FA
:1002C200096E0050086E016A006AE8D7016A006A86
:1002D200002A000C011E001E0B2ADDD7082AD8B402
:1002E200092A0450085CD8A4D9D70550095CD8A4BF
:1002F200D5D7096A086A002AD8B4012A01AECED736
:060302000000FF0C1200D8
:100308001ED0300E006E57D0310E006E54D0320E13
:10031800006E51D0330E006E4ED0340E006E4BD0AE
:10032800350E006E48D0360E006E45D0370E006E82
:1003380042D0380E006E3FD0390E006E3CD0000E11
:100348005F1802E1000E5E18DCE0000E5F1802E1A3
:10035800010E5E18D9E0000E5F1802E1020E5E1869
:10036800D6E0000E5F1802E1030E5E18D3E0000E1F
:100378005F1802E1040E5E18D0E0000E5F1802E17B
:10038800050E5E18CDE0000E5F1802E1060E5E183D
:10039800CAE0000E5F1802E1070E5E18C7E0000E03
:1003A8005F1802E1080E5E18C4E0000E5F1802E153
:0803B800090E5E18C1E01200FD
:1003C0007BEC03F0030E946E826AABDE010E646E6A
:1003D00038DE0C0E646E35DE010E5E6E030E5F6E4F
:1003E000250E606E000E616EEFDE020E5E6E010E77
:1003F0005F6E320E606E000E616EE6DE150E0B6EE5
:100400004B0E0C6EBE0E0D6E0D2EFED70C2EFCD7B5
:100410000B2EFAD70000010E646E13DE010E5E6E25
:10042000030E5F6E440E606E000E616ECDDE010E37
:10043000426E000E436E5A6A82A014D0020E0B6EFA
:10044000040E0C6EBA0E0D6E0D2EFED70C2EFCD7C0
:100450000B2EFAD7000082A005D0172A040E175CD5
:10046000D8B0176A17521FE082A202D0010E5A6E4E
:10047000175219E05A5217E00DD05A504226000E7A
:10048000432211D05A501526000E16220CD0186A9D
:10049000196A09D01750010AF0E01750020AF2E079
:1004A0001750030AF4E0184A192A800E1918006E32
:1004B000800E005C02E13C0E185C04E3154A162A2B
:1004C000186A196A800E1618006E800E005C02E130
:1004D0003C0E155C04E3424A432A156A166A800EF4
:1004E0004318006E800E005C02E10D0E425C06E3D4
:1004F000010E426E000E436E1A1E1B1E58C05CF0A9
:1005000059C05DF00A0E046E000E056E42C000F088
:1005100043C001F096DE00C05EF001C05FF0F4DE83
:100520005CC0E1FF5DC0E2FF00C0E6FF010E5824A1
:100530005C6E000E59205D6E0A0E046E000E056E94
:1005400042C000F043C001F07CDE08C000F009C0EA
:1005500001F000C05EF001C05FF0D6DE5CC0E1FFDC
:100560005DC0E2FF00C0E6FF030E58245C6E000E83
:1005700059205D6E0A0E046E000E056E15C000F067
:1005800016C001F05EDE00C05EF001C05FF0BCDEB0
:100590005CC0E1FF5DC0E2FF00C0E6FF040E58242E
:1005A0005C6E000E59205D6E0A0E046E000E056E24
:1005B00015C000F016C001F044DE08C000F009C00C
:1005C00001F000C05EF001C05FF09EDE5CC0E1FFA4
:1005D0005DC0E2FF00C0E6FF060E58245C6E000E10
:1005E00059205D6E0A0E046E000E056E18C000F0F4
:1005F00019C001F026DE00C05EF001C05FF084DEAD
:100600005CC0E1FF5DC0E2FF00C0E6FF070E5824BA
:100610005C6E000E59205D6E0A0E046E000E056EB3
:1006200018C000F019C001F00CDE08C000F009C0CD
:1006300001F000C05EF001C05FF066DE5CC0E1FF6B
:100640005DC0E2FF00C0E6FF020E5E6E040E5F6E4C
:1006500058C060F059C061F0B7DD000E1B1802E110
:10066000000E1A1809E1020E5E6E0E0E5F6E550E38
:10067000606E000E616EA8DD1A501B1009E0020EBC
:100680005E6E0E0E5F6E520E606E000E616E9CDD31
:100690000B0E0B6E260E0C6E5D0E0D6E0D2EFED724
:1006A0000C2EFCD70B2EFAD700000000C4D6FFD7C3
:1006F60010EE15F0450E006E010E016EB00EF66E90
:0E070600060EF76E000EF86EDCEC00F012002E
:0206B000000048
:0106B2000047
:0206B300000045
:0206B500000043
:0906B70030303A30303A303000A6
:0D06C000446576656C6F70656420427900BA
:1006CD004D494E4120544543484E4F4C4F475900DC
:0206DD0000001B
:0E06DF004469676974616C20436C6F636B0043
:0306ED00504D006D
:0306F000414D0079
:0206F3001C00E9
:020000040030CA
:0D000100220F0EFF0181FF0FC00FE00F4026
:00000001FF
