:020000000F2AC5
:0C000600000000000000000000000800E6
:0E001200533083120313FD00FD0B0D28080070
:10002000243083120313FC00B530FD00FD0B1628AD
:0A003000FC0B162800000000080079
:10003A0083120313EE1B23288612242886166E1BAE
:10004A002828061229280616EE1A2D2886112E2887
:10005A0086156E1A322806113328061566183728AF
:10006A00061438280610861403208610EE193F2835
:10007A008612402886166E19442806124528061646
:10008A00EE18492886114A2886156E184E28061138
:10009A004F28061566185328061454280610861485
:1000AA0003208610661C5B2810205C2809200800A3
:0E00BA008312031365088A00640882000800A0
:1000C800710DF80DF90D7408F8027508031C750F09
:1000D800F902F00DF10D0F30FC00710DF80DF90D5E
:1000E8007408701C7D28F8027508031C750FF90246
:1000F8008228F80775080318750FF907F00DF10D38
:10010800FC0B712870188E287408F80775080318F6
:08011800750FF9070000080053
:100120008312031366106D08EE001D20661408008C
:10013000B928303083120313F0000B293130F0005E
:100140000B293230F0000B293330F0000B2934300A
:10015000F0000B293530F0000B293630F0000B2968
:100160003730F0000B293830F0000B293930F0001F
:100170000B298312031300306A06031DC1280030C7
:1001800069060319992800306A06031DC928013041
:10019000690603199E2800306A06031DD128023023
:1001A00069060319A12800306A06031DD928033007
:1001B00069060319A42800306A06031DE1280430EB
:1001C00069060319A72800306A06031DE9280530CF
:1001D00069060319AA2800306A06031DF1280630B3
:1001E00069060319AD2800306A06031DF928073097
:1001F00069060319B02800306A06031D012908307A
:1002000069060319B32800306A06031D092909305D
:0802100069060319B628080075
:100218001E29803083120313E9003129C030E90018
:1002280031299430E9003129D430E900312980306E
:10023800E9003129831203136908013A03190D29CA
:100248006908023A031912296908033A031915299A
:100258006908043A031918291B296A03F000690878
:10026800F0077008E9007008EE001D206610EC0128
:100278006C086B078400000803194A296C086B078F
:1002880084000008ED009020EC0A3C296614080060
:10029800831203137408003A031D5B297508003A9A
:1002A800031D5B29FF30F0007F30F100B429831271
:1002B8000313FD01F901F8017108700403190034F2
:1002C80071087506FA00FA1BFD09FB01F51F712973
:1002D800F409F509F40A0319F50AF11F7829F00958
:1002E800F109F00A0319F10A71087504FA00FA1BFA
:1002F8008D2964207B18A029FD1F0034F009F1091D
:10030800F00A0319F10AF809F909F80A0319F90AB0
:100318000034F51F9C29F11B98297108F900700811
:10032800F800F101F0018029F101F001F00A003430
:10033800F109F009FB0A7D29F80A0319F90A74087A
:100348007802031D802975087902031D8029F901A7
:10035800F801F00A0319F10AF11F80290000FF349F
:0203680008008B
:10036A0083160313861006100611861106128612CA
:10037A0083128610061086120612861106111020A4
:10038A0010201020861506158614032086101020CA
:10039A00861403208610102086140320861010204D
:1003AA000611861403208610102086140320861056
:1003BA0086118616861403208610102086120615CA
:1003CA008614032086100611861403208610102036
:1003DA008614032086100615861403208610102022
:1003EA00061186140320861086160616861506152B
:0C03FA00861403208610102066140800F2
:100406005D208A110A128000840AE40A0319E50AAB
:08041600F003031D032A080096
:10041E00C823033083160313870083128701B52187
:10042E000130EE001D200C30EE001D200130E900E1
:10043E000330EA002030EB000C210230E9000130DD
:10044E00EA002D30EB000C213330FB00BB30FC00FA
:10045E00DF30FD00FD0B312AFC0B312AFB0B312A5C
:10046E00000000000130EE001D200130E9000330D5
:10047E00EA004A30EB000C210130C8000030C90000
:10048E00E701071C602A0330FB008A30FC00553060
:10049E00FD00FD0B502AFC0B502AFB0B502A0000CE
:1004AE000000071C602ADA0A04305A02031C602A74
:1004BE00DA015A080319872A871C672A0130E700D8
:1004CE005A080319872A67080319872A7B2A67089F
:1004DE00C8070318C90A872A6708D8070318D90A54
:1004EE00872AC601C701872A5A08013A03196E2ABC
:1004FE005A08023A0319732A5A08033A0319782A3A
:10050E00C60A0319C70A80304706F0008030700211
:10051E00031D932A3C304602031C9A2AD80A03195B
:10052E00D90AC601C70180305906F000803070022A
:10053E00031DA32A3C305802031CAA2AC80A031919
:10054E00C90AD801D90180304906F0008030700206
:10055E00031DB32A0D304802031CBB2A0130C8000C
:10056E000030C900BE09BF093D08E8000A30F4009A
:10057E000030F5004808F0004908F1004C217008E1
:10058E00E9007108EA0098208312031368088400BA
:10059E00700880003D0AE8000A30F4000030F500D3
:1005AE004808F0004908F1004C217808F00079085D
:1005BE00F1007008E9007108EA0098208312031315
:1005CE00680884007008800003303D07E8000A3098
:1005DE00F4000030F5005808F0005908F1004C21E5
:1005EE007008E9007108EA00982083120313680866
:1005FE0084007008800004303D07E8000A30F400E3
:10060E000030F5005808F0005908F1004C21780828
:10061E00F0007908F1007008E9007108EA009820EE
:10062E0083120313680884007008800006303D07AB
:10063E00E8000A30F4000030F5004608F0004708E4
:10064E00F1004C217008E9007108EA00982083122D
:10065E000313680884007008800007303D07E80027
:10066E000A30F4000030F5004608F0004708F100AB
:10067E004C217808F0007908F1007008E900710843
:10068E00EA00982083120313680884007008800023
:10069E000230E9000430EA003D08EB000C21003086
:1006AE003F06031D5C2B00303E06031D652B0230FA
:1006BE00E9000E30EA004030EB000C213E083F040A
:1006CE000319702B0230E9000E30EA004330EB00C4
:1006DE000C211A30FB005E30FC006E30FD00FD0B6D
:1006EE00762BFC0B762BFB0B762B0000472A7E2BF2
:1007900020308400443083120313F0008430E400DE
:0807A0000330E500032208000C
:1007080044346534763465346C346F34703465340D
:0A0718006434203442347934003494
:100722004D3449344E344134203454344534433406
:1007320048344E344F344C344F34473459340034F7
:020742005B3426
:040744000034003449
:0607480041344D34003481
:06074E0050344D3400346C
:040754000034003439
:040758000034003435
:10075C004434693467346934743461346C3420340F
:0C076C0043346C346F3463346B3400345D
:040778000034003415
:02077C00003447
:10077E00303430343A34303430343A343034303437
:02078E00003435
:04400E00F22F000786
:00000001FF
