:100000003DEF00F00000000000EF00F000000000F5
:0A0010000000000000000000F3D71C
:0A001C00490E0D6E0D2EFED71200E6
:100026000900F5CFE6FF0006FBE10106F9E1120043
:10003600C26AC00EC212151C006E0050C116C18CD9
:10004600C18E16C000F000360090003600900036D3
:1000560000900050C212C280DEDFC284C2A401D06A
:10006600FDD7C4CF01F0006AC3500012000E011282
:04007600C290120022
:10007A004CEC00F0956A9280810EC26ECE0EC16E73
:0C008A00166AD4DF00C083FFFBD7FFD74D
:1000980010EE15F0010E006E010E016E960EF66E52
:0E00A800000EF76E000EF86E13EC00F0120062
:010096000F5A
:020000040030CA
:0D000100220F0EFF0181FF0FC00FE00F4026
:00000001FF
